:020000040800F2
:10000000980900202902000881040008370400082C
:100010007D040008530300081F6000080000000072
:100020000000000000000000000000002D4B000850
:100030005703000800000000B1050008CD54000877
:10004000430200084302000843020008430200087C
:10005000430200084302000843020008430200086C
:10006000430200084302000843020008430200085C
:10007000430200084302000843020008430200084C
:10008000430200084302000843020008430200083C
:10009000430200084302000843020008430200082C
:1000A000430200084302000843020008430200081C
:1000B000430200084302000843020008430200080C
:1000C00043020008430200084302000843020008FC
:1000D00043020008995D000843020008215E000801
:1000E00043020008430200084302000843020008DC
:1000F00043020008430200084302000843020008CC
:1001000043020008430200084302000843020008BB
:1001100043020008430200084302000843020008AB
:10012000430200084302000843020008430200089B
:10013000430200084302000843020008430200088B
:10014000430200084302000843020008430200087B
:10015000430200084302000843020008430200086B
:10016000430200084302000843020008430200085B
:10017000430200084302000843020008430200084B
:10018000430200084302000800F002F800F03CF8C7
:100190000AA090E8000C82448344AAF10107DA45E2
:1001A00001D100F031F8AFF2090EBAE80F0013F0F8
:1001B000010F18BFFB1A43F0010318474C910000D0
:1001C0006C910000103A24BF78C878C1FAD8520761
:1001D00024BF30C830C144BF04680C6070470000C1
:1001E0000023002400250026103A28BF78C1FBD840
:1001F000520728BF30C148BF0B6070471FB508F0D9
:1002000061FD1FBD10B510BD00F078F81146FFF775
:10021000F5FF07F097FD00F096F803B4FFF7F2FF43
:1002200003BC07F0F1FC000009488047094800477B
:10023000FEE7FEE7FEE7FEE7FEE7FEE7FEE7FEE796
:10024000FEE7FEE704480549054A064B70470000F3
:10025000D154000889010008980300209809002063
:100260009805002098050020704710B5203AC0F08E
:100270000B80B1E81850203AA0E81850B1E81850A7
:10028000A0E81850BFF4F5AF5FEA027C24BFB1E8E4
:100290001850A0E8185044BF18C918C0BDE8104055
:1002A0005FEA827C24BF51F8043B40F8043B08BF5E
:1002B0007047D20728BF31F8023B48BF11F8012B25
:1002C00028BF20F8023B48BF00F8012B7047704759
:1002D00070477047704710B500F008F8006810BD0F
:1002E00010B5044600F002F8046010BD00487047E5
:1002F0003403002000487047340300207546FFF7A0
:10030000F9FFAE4605006946534620F007008546D2
:1003100018B020B5FFF796FFBDE820404FF000066B
:100320004FF000074FF000084FF0000B21F00701DD
:10033000AC46ACE8C009ACE8C009ACE8C009ACE820
:10034000C0098D4670470446AFF300802046FFF792
:1003500064FF00BFFEE77047F0B50A4600210023A6
:10036000002400BF3DE0012505FA01F3156805EA08
:1003700003049C4234D105684F000326BE40B543B8
:10038000056015794E00B54006683543056015795E
:10039000012D02D01579022D16D185684F00032654
:1003A000BE40B543856055794E00B54086683543FB
:1003B0008560456801268E40B5434560456896795D
:1003C0008E40B6B235434560C5684F000326BE4037
:1003D000B543C560D5794E00B540C6683543C560A4
:1003E000491C1029BFD3F0BDF0B5002300244D07F0
:1003F000ED0E02FA05F3CE1000F1200555F8265057
:100400004E07F70E0F26BE40B543CF1000F1200671
:1004100046F82750CE1000F1200555F8265045EA41
:100420000304CE1000F1200545F82640F0BD4183BD
:1004300070470183704700BFFEE700001CB5012133
:10044000202000F0B7F84FF4C060009001208DF834
:10045000040000208DF8060001208DF8070003201D
:100460008DF8050069460448FFF776FF4FF4C06138
:100470000148FFF7DCFF1CBD0014024000BFFEE78F
:100480007047000070B5002100230F22C4781CB310
:10049000174C246804F4E064C4F5E064C4F3072155
:1004A000C1F10404E3B20A4144789C40E1B284788B
:1004B000144021430C07210E0E4C05786155047839
:1004C00004F01F050124AC4005786D11AD0005F165
:1004D000E025C5F8004109E0047804F01F05012477
:1004E000AC40054D0678761145F8264070BD0000F9
:1004F0000CED00E000E400E080E100E0024901438F
:10050000024A1160704700000000FA050CED00E09F
:1005100030B58BB004460D460121022000F04AF8A8
:100520000121022000F056F80120099002208DF8E8
:10053000280000208DF82A0001208DF82B000320D0
:100540008DF8290009A91848FFF706FF02220021AB
:100550001548FFF749FF0020ADF82000ADF81A005C
:10056000A8B2ADF81800079406A9104805F058F88D
:100570006020ADF804000020ADF810000120ADF8B7
:10058000060001A9094804F0EFFF0821074805F01B
:100590003BF80121054804F0CFFF0121034804F096
:1005A000D7FF0BB030BD0000000402400004004043
:1005B0007047000029B1064A12680243044B1A60D2
:1005C00004E0034A12688243014B1A60704700003E
:1005D0003038024029B1064A12680243044B1A60BF
:1005E00004E0034A12688243014B1A60704700001E
:1005F0004038024029B1064A12680243044B1A608F
:1006000004E0034A12688243014B1A6070470000FD
:1006100044380240F0B500210022002402250026C3
:100620000223324F3F6807F00C0121B1042905D0A5
:10063000082937D105E02E4F076036E02D4F0760BF
:1006400033E02A4F3F1F3F68C7F38056274F3F1FB5
:100650003F6807F03F036EB1264FB7FBF3F7DFF8B3
:100660008CC0ACF1040CDCF800C0CCF3881C07FB98
:100670000CF40CE01E4FB7FBF3F7DFF870C0ACF1E1
:10068000040CDCF800C0CCF3881C07FB0CF4174FFB
:100690003F1F3F68C7F301477F1C7D00B4FBF5F7A0
:1006A000076002E0124F076000BF00BF0F4F3F68B6
:1006B00007F0F0010909104F7A5C0768D7404760DE
:1006C0000A4F3F6807F4E051890A0B4F7A5C47688C
:1006D000D7408760054F3F6807F46041490B064FDC
:1006E0007A5C4768D740C760F0BD00000838024018
:1006F0000024F40000127A000C00002070B50446BB
:10070000002500201649086001201649C1F898020A
:10071000FF2004F00DFAFF2004F00AFA204604F04E
:1007200007FA042004F004FA022004F001FA24205D
:1007300004F0FEF9042004F0FBF904F12E00C5B228
:10074000E843C5B2284604F0F3F9012004490860E3
:1007500000200449C1F89802042007F07FFA70BD18
:10076000940242420000424200B5ADF6840D0020E2
:10077000CDF87808CDF874089FEDFC0B0DF580607E
:1007800080EDEC0B9FEDF90B80EDEA0B9FEDF70B85
:1007900080EDE80B9FEDF70B80EDE00B9FEDF70B85
:1007A00080EDDE0B9FEDF70B80EDDC0B9FEDF30B87
:1007B00080EDDA0B9FEDF50B80EDD80B00BF00BF8D
:1007C00000BF00BF0020CDF84C0600BFCDF81406D6
:1007D0008022F0490DF5B060FFF747FD8022ED491A
:1007E00080310DF5A060FFF740FD8022EA490DF54C
:1007F0009060FFF73AFD8022E74980310DF5806077
:10080000FFF733FD8022E549E0A8FFF72EFD8022A7
:10081000E2498031C0A8FFF728FD0220CDF87C080E
:100820009FEDD20B0DF5806080EDD60B0120CDF849
:10083000480689E1DA49DDF87C08085C79286ED140
:10084000DDF84C06401E80B2CDF84C069FEDC70B7C
:1008500053EC102B0DF5806090EDD60B51EC100B86
:1008600007F03AFE5CD1DDF84C06022816D1BDF83F
:100870005406BDF8521601EB810100EB4100BDF8B2
:10088000501601EBC10202EB011100EB81001F9039
:1008900007F0BBFE0DF5F66203C21DE0DDF84C0665
:1008A00001280ED1BDF85206BDF8501601EB8101AA
:1008B00000EB41001F9007F0A8FE0DF5F66203C2A1
:1008C0000AE0DDF84C0638B9BDF850061F9007F075
:1008D000B3FE0DF5F66203C2DDF8480668B90DF502
:1008E000806090EDEC0B51EC100B07F0D5FB0DF593
:1008F000F66203C20120CDF848069FEDAA0B53EC27
:10090000102B0DF5806090EDD60B51EC100B07F01D
:10091000CFFB0DF5EB6203C20020CDF84C06CFE013
:100920009FEDA00B53EC102B0DF5806090EDD60BD6
:1009300051EC100B07F0D0FD5CD1DDF84C0602281D
:1009400016D1BDF85406BDF8521601EB810100EB3B
:100950004100BDF8501601EBC10202EB011100EBA2
:1009600081001F9007F051FE0DF5F56203C21DE0F6
:10097000DDF84C0601280ED1BDF85206BDF8501620
:1009800001EB810100EB41001F9007F03EFE0DF5E9
:10099000F56203C20AE0DDF84C0638B9BDF850062E
:1009A0001F9007F049FE0DF5F56203C2DDF8480619
:1009B00068B90DF5806090EDEA0B51EC100B07F073
:1009C0006BFB0DF5F56203C20120CDF848069FEDE3
:1009D000750B53EC102B0DF5806090EDD60B51ECA0
:1009E000100B07F065FB0DF5EB6203C20020CDF89C
:1009F0004C0665E09FED6D0B53EC102B0DF5806000
:100A000090EDD60B51EC100B07F066FD58D1DDF8D8
:100A10004C06022816D1BDF85406BDF8521601EB5B
:100A2000810100EB4100BDF8501601EBC10202EB61
:100A3000011100EB81001F9007F0E7FD0DF5F46256
:100A400003C21DE0DDF84C0601280ED1BDF85206A8
:100A5000BDF8501601EB810100EB41001F9007F03B
:100A6000D4FD0DF5F46203C20AE0DDF84C0638B996
:100A7000BDF850061F9007F0DFFD0DF5F46203C2CC
:100A8000DDF8480668B90DF5806090EDE80B51EC93
:100A9000100B07F001FB0DF5F46203C20120CDF845
:100AA00048069FED400B53EC102B0DF5806090ED48
:100AB000D60B51EC100B07F0FBFA0DF5EB6203C2FD
:100AC0009FED3C0B53EC102B0DF5806090EDD60B99
:100AD00051EC100B07F0C4FD08D23149DDF87C0859
:100AE000085C2D2802D10020CDF848069FED310B7F
:100AF00053EC102B0DF5806090EDD60B51EC100BE4
:100B000007F0AEFD1BD22649DDF87C08085C792889
:100B100015D0DDF87C08085C2D2810D0DDF87C08A5
:100B2000085C303881B20DF5CA62DDF84C0622F857
:100B30001010DDF84C06401C80B2CDF84C06DDF8F4
:100B40007C08401CCDF87C089FED1A0B53EC102B51
:100B50000DF5806090EDD60B51EC100B07F080FD89
:100B6000FFF468AE0020CDF81C0677E0000000001E
:100B700000000000000000000000564000000000DF
:100B8000008040400000000000005A4000000000CB
:100B900000805640C08D0008C08E0008C08F00083D
:100BA0006A020020000000000000F03F000000008A
:100BB0000000004000000000000008400020FE4946
:100BC00008800120FFF79AFDFB48008800F40040F0
:100BD000E8B3FA480078FF2840D1F8484078FF2869
:100BE0003CD1F6488078012838D1F448C0780628EE
:100BF00034D1F248007950BB00201F90EF48807834
:100C0000EE49C9780844ED4909790844EB49497926
:100C10000844EA4989790844E849C9790844E74918
:100C2000097A0844C0B21F901F98C043C0B21F90F9
:100C3000E248417A1F9881420FD1E048417980799A
:100C400001EB002080B2ADF80806012000E005E0CD
:100C5000CDF81C060020D849088000BFDDF81C062E
:100C60000128ABD10020CDF81C064FE00020D2496E
:100C700008800220FFF742FDCF48008800F40040C2
:100C8000E8B3CE480078FF2840D1CC484078FF2810
:100C90003CD1CA488078022838D1C848C078062894
:100CA00034D1C648007950BB00201F90C3488078DB
:100CB000C249C9780844C14909790844BF494979FA
:100CC0000844BE4989790844BC49C9790844BB49EC
:100CD000097A0844C0B21F901F98C043C0B21F9049
:100CE000B648417A1F9881420FD1B4484179807942
:100CF00001EB002080B2ADF80A06012000E005E01B
:100D0000CDF81C060020AC49088000BFDDF81C06A9
:100D10000128ABD10020CDF81C064FE00020A649E9
:100D200008800320FFF7EAFCA348008800F4004095
:100D3000E8B3A2480078FF2840D1A0484078FF28B7
:100D40003CD19E488078032838D19C48C07806283A
:100D500034D19A48007950BB00201F909748807882
:100D60009649C978084495490979084493494979CD
:100D700008449249897908449049C97908448F49BF
:100D8000097A0844C0B21F901F98C043C0B21F9098
:100D90008A48417A1F9881420FD1884841798079E9
:100DA00001EB002080B2ADF80C06012000E005E068
:100DB000CDF81C0600208049088000BFDDF81C0625
:100DC0000128ABD10020CDF81C064FE000207A4965
:100DD00008800420FFF792FC7748008800F4004068
:100DE000E8B376480078FF2840D174484078FF285F
:100DF0003CD172488078042838D17048C0780628E1
:100E000034D16E48007950BB00201F906B48807829
:100E10006A49C978084469490979084467494979A0
:100E200008446649897908446449C9790844634992
:100E3000097A0844C0B21F901F98C043C0B21F90E7
:100E40005E48417A1F9881420FD15C484179807990
:100E500001EB002080B2ADF80E06012000E005E0B5
:100E6000CDF81C0600205449088000BFDDF81C06A0
:100E70000128ABD10020CDF81C064FE000204E49E0
:100E800008800520FFF73AFC4B48008800F400403A
:100E9000E8B34A480078FF2840D148484078FF2806
:100EA0003CD146488078052838D14448C078062887
:100EB00034D14248007950BB00201F903F488078D1
:100EC0003E49C97808443D49097908443B49497974
:100ED00008443A49897908443849C9790844374966
:100EE000097A0844C0B21F901F98C043C0B21F9037
:100EF0003248417A1F9881420FD130484179807938
:100F000001EB002080B2ADF81006012000E005E002
:100F1000CDF81C0600202849088000BFDDF81C061B
:100F20000128ABD10020CDF81C0653E00020224957
:100F300008800620FFF7E2FB1F48008800F400400D
:100F4000F0B31E480078FF2844D11C484078FF28A1
:100F500040D11A48807806283CD11848C078062825
:100F600038D11648007958BB00201F90134880786C
:100F70001249C97808441149097908440F49497947
:100F800008440E49897908440C49C97908440B4939
:100F9000097A0844C0B21F901F98C043C0B21F9086
:100FA0000648417A1F98814213D1044841798079DB
:100FB00001EB002080B204E0240000206002002049
:100FC00008E0ADF812060120CDF81C060020FE490D
:100FD000088000BFDDF81C060128A7D1BDF808066F
:100FE000C01C4FF49671484340F2FF3190FBF1F082
:100FF0003C381D9007F009FB9FEDF40B53EC102BD0
:10100000CDE91E019DED1E0B51EC100B07F064FBAA
:101010000DF5EA6203C2BDF80A06C01C4FF49671D2
:10102000484340F2FF3190FBF1F0F0381D9007F09B
:10103000ECFA9FEDE60B53EC102BCDE91E019DED74
:101040001E0B51EC100B07F047FB0DF5E96203C2D4
:10105000BDF80C06C01F4FF49671484340F2FF31B3
:1010600090FBF1F0C0F13C001D9007F0CEFA9FED2F
:10107000D70B53EC102BCDE91E019DED1E0B51EC4F
:10108000100B07F029FB0DF5E86203C2BDF80E0650
:10109000C01E4FF49671484340F2FF3190FBF1F0CF
:1010A00096381D9007F0B1FA9FEDC80B53EC102B4A
:1010B000CDE91E019DED1E0B51EC100B07F00CFB52
:1010C0000DF5E76203C2BDF8100608384FF49671BB
:1010D000484340F2FF3190FBF1F0C0F196001D90C3
:1010E00007F093FA9FEDB90B53EC102BCDE91E01DD
:1010F0009DED1E0B51EC100B07F0EEFA0DF5E662BC
:1011000003C2BDF81206C01C4FF49671484340F26A
:10111000FF3190FBF1F096381D9007F076FA9FEDC5
:10112000AB0B53EC102BCDE91E019DED1E0B51ECCA
:10113000100B07F0D1FA0DF5E56203C20DF58060E2
:1011400090EDD40B05F0ECF90DF5806080ED600BAF
:1011500090EDD40B06F070F88DED1E0B9DED1E0B7F
:1011600051EC100B06F098FF0DF5B16203C20DF5BE
:10117000806090EDD40B06F05FF80DF5806080ED97
:10118000680B90EDD40B05F0CBF90DF5B06080ED58
:101190000A0B0DF5806090EDD20B05F0C1F90DF54D
:1011A000806080ED400B90EDD20B06F045F88DEDA0
:1011B0001E0B9DED1E0B51EC100B06F06DFF0DF597
:1011C000A16203C20DF5806090EDD20B06F034F8F9
:1011D0008DED1E0B9DED1E0B51EC100B06F05CFF10
:1011E0000DF5A86203C20DF5806090EDD20B05F0FD
:1011F00097F98DED1E0B9DED1E0B51EC100B06F0BB
:101200004BFF0DF5A062C2E912010DF5806090ED73
:10121000D00B05F085F90DF5806080ED200B90ED89
:10122000D00B06F009F88DED1E0B9DED1E0B51EC59
:10123000100B06F031FF0DF5916203C20DF58060D1
:1012400090EDE00B80ED260B90EDD00B05F0F4FF58
:101250000DF5806080ED280B90EDD00B05F060F966
:101260000DF5906080ED0A0B803890EDCE0B05F007
:1012700057F90DF5806080ED000B90EDCE0B05F079
:10128000DBFF8DED1E0B9DED1E0B51EC100B06F0E0
:1012900003FF0DF5816203C20DF5806090EDDE0B5A
:1012A00080ED060B90EDDC0B80ED0E0B90EDCE0B80
:1012B00005F0C2FF8DED1E0B9DED1E0B51EC100BCA
:1012C00006F0EAFE0DF5886203C20DF5806090ED30
:1012D000CE0B05F025F98DED1E0B9DED1E0B51EC8F
:1012E000100B06F0D9FE0DF58062C2E9120110461E
:1012F00090EDCC0B05F014F98DEDE00B0DF5806051
:1013000090EDCC0B05F098FF8DED1E0B9DED1E0BA7
:1013100051EC100B06F0C0FEE391E2900DF58060F9
:1013200090EDCC0B05F088FF8DEDF00B0DF5806096
:1013300090EDCC0B05F0F4F88DEDF20B0DF580601F
:1013400090EDCA0B05F0ECF88DEDC00B0DF580604B
:1013500090EDCA0B05F070FF8DED1E0B9DED1E0B81
:1013600051EC100B06F098FEC391C2900DF5806011
:1013700090EDCA0B05F060FF8DED1E0B9DED1E0B71
:1013800051EC100B06F088FED191D0900DF58060E5
:1013900090EDCA0B05F0C4F88DED1E0B9DED1E0BF4
:1013A00051EC100B06F078FEC0AAC2E912010DF54F
:1013B000806090EDD80B8DEDCE0B90EDDA0B8DEDBE
:1013C000C60B002006E0000024000020839952A2F2
:1013D00046DF913FCDF81806BFE00020CDF8140697
:1013E000B0E00DF59C60DDF8141600EBC10090ED47
:1013F000000B8DED1A0B0DF5A061DDF8180601EB61
:10140000401090ED060B8DED180B9DED1A0B53EC73
:10141000102B9DED180B51EC100B07F05DF9CDE989
:101420001E010DF59860DDF8141600EBC10090ED7B
:10143000000B8DED160B0DF5A061DDF8180601EB24
:10144000401090ED040B8DED140B9DED160B53EC3D
:10145000102B9DED140B51EC100B07F03DF9CDE96D
:101460001A010DF59460DDF8141600EBC10090ED43
:10147000000B8DED120B0DF5A061DDF8180601EBE8
:10148000401090ED020B8DED100B9DED120B53EC07
:10149000102B9DED100B51EC100B07F01DF9CDE951
:1014A00016010DF59061DDF8140601EBC00090ED1A
:1014B000000B8DED120B8031DDF8180601EB4010AA
:1014C00090ED000B8DED100B9DED120B53EC102BDE
:1014D0009DED100B51EC100B07F0FEF8CDE9140157
:1014E0009DED160B53EC102B9DED140B51EC100BD6
:1014F00006F0DEFDCDE918019DED1A0B53EC102B23
:101500009DED180B51EC100B06F0D2FDCDE91C013E
:101510009DED1E0B53EC102B9DED1C0B51EC100B95
:1015200006F0C6FDA0ABDDF8182603EB4213DDF88C
:10153000142603EBC20203C2DDF81406401C80B27D
:10154000CDF81406DDF814060428FFF64AAFDDF8DE
:101550001806401C80B2CDF81806DDF818060428DD
:10156000FFF63BAF0020CDF81806BCE00020CDF818
:101570001406ADE00DF58C60DDF8141600EBC1002B
:1015800090ED000B8DED1A0BA0A9DDF8180601EB0C
:10159000401090ED060B8DED180B9DED1A0B53ECE2
:1015A000102B9DED180B51EC100B07F095F8CDE9C1
:1015B0001E010DF58860DDF8141600EBC10090EDFA
:1015C000000B8DED160BA0A9DDF8180601EB4010FD
:1015D00090ED040B8DED140B9DED160B53EC102BC1
:1015E0009DED140B51EC100B07F076F8CDE91A01C4
:1015F0000DF58460DDF8141600EBC10090ED000BD2
:101600008DED120BA0A9DDF8180601EB401090ED4E
:10161000020B8DED100B9DED120B53EC102B9DED7D
:10162000100B51EC100B07F057F8CDE916010DF532
:101630008061DDF8140601EBC00090ED000B8DED2C
:10164000120BA0A9DDF8180601EB401090ED000B7D
:101650008DED100B9DED120B53EC102B9DED100B2F
:1016600051EC100B07F038F8CDE914019DED160B85
:1016700053EC102B9DED140B51EC100B06F018FDE4
:10168000CDE918019DED1A0B53EC102B9DED180BB5
:1016900051EC100B06F00CFDCDE91C019DED1E0B6D
:1016A00053EC102B9DED1C0B51EC100B06F000FDC4
:1016B00080ABDDF8182603EB4213DDF8142603EBAC
:1016C000C20203C2DDF81406401C80B2CDF8140635
:1016D000DDF814060428FFF64DAFDDF81806401CAF
:1016E00080B2CDF81806DDF818060428FFF63EAFE4
:1016F0000020CDF81806B8E00020CDF81406A9E0C7
:10170000F8A8DDF8141600EBC10090ED000B8DED8C
:101710001A0B80A9DDF8180601EB401090ED060BBE
:101720008DED180B9DED1A0B53EC102B9DED180B46
:1017300051EC100B06F0D0FFCDE91E01F0A8DDF84A
:10174000141600EBC10090ED000B8DED160B80A977
:10175000DDF8180601EB401090ED040B8DED140B35
:101760009DED160B53EC102B9DED140B51EC100B53
:1017700006F0B2FFCDE91A01E8A8DDF8141600EB77
:10178000C10090ED000B8DED120B80A9DDF818065D
:1017900001EB401090ED020B8DED100B9DED120B47
:1017A00053EC102B9DED100B51EC100B06F094FF39
:1017B000CDE91601E0A9DDF8140601EBC00090EDBB
:1017C000000B8DED120B80A9DDF8180601EB40101F
:1017D00090ED000B8DED100B9DED120B53EC102BCB
:1017E0009DED100B51EC100B06F076FFCDE91401C6
:1017F0009DED160B53EC102B9DED140B51EC100BC3
:1018000006F056FCCDE918019DED1A0B53EC102B98
:101810009DED180B51EC100B06F04AFCCDE91C01B4
:101820009DED1E0B53EC102B9DED1C0B51EC100B82
:1018300006F03EFC60ABDDF8182603EB4213DDF842
:10184000142603EBC20203C2DDF81406401C80B26A
:10185000CDF81406DDF814060428FFF651AFDDF8C4
:101860001806401C80B2CDF81806DDF818060428CA
:10187000FFF642AF0020CDF81806B8E00020CDF802
:101880001406A9E0D8A8DDF8141600EBC10090ED0D
:10189000000B8DED1A0B60A9DDF8180601EB401066
:1018A00090ED060B8DED180B9DED1A0B53EC102BE4
:1018B0009DED180B51EC100B06F00EFFCDE91E014B
:1018C000D0A8DDF8141600EBC10090ED000B8DEDF3
:1018D000160B60A9DDF8180601EB401090ED040B23
:1018E0008DED140B9DED160B53EC102B9DED140B91
:1018F00051EC100B06F0F0FECDE91A01C8A8DDF896
:10190000141600EBC10090ED000B8DED120B60A9D9
:10191000DDF8180601EB401090ED020B8DED100B79
:101920009DED120B53EC102B9DED100B51EC100B99
:1019300006F0D2FECDE91601C0A9DDF8140601EBD0
:10194000C00090ED000B8DED120B60A9DDF81806BC
:1019500001EB401090ED000B8DED100B9DED120B87
:1019600053EC102B9DED100B51EC100B06F0B4FE58
:10197000CDE914019DED160B53EC102B9DED140BCE
:1019800051EC100B06F094FBCDE918019DED1A0BFC
:1019900053EC102B9DED180B51EC100B06F088FB4F
:1019A000CDE91C019DED1E0B53EC102B9DED1C0B86
:1019B00051EC100B06F07CFB40ABDDF8182603EB76
:1019C0004213DDF8142603EBC20203C2DDF814064D
:1019D000401C80B2CDF81406DDF814060428FFF68A
:1019E00051AFDDF81806401C80B2CDF81806DDF8BE
:1019F00018060428FFF642AF0020CDF81806BCE018
:101A00000020CDF81406ADE058A8DDF8141600EB60
:101A1000C10090ED000B8DED1A0B0DF5B061DDF8F6
:101A2000180601EB401090ED060B8DED180B9DEDA7
:101A30001A0B53EC102B9DED180B51EC100B06F00C
:101A40004BFECDE91E0150A8DDF8141600EBC100D5
:101A500090ED000B8DED160B0DF5B061DDF818065D
:101A600001EB401090ED040B8DED140B9DED160B6A
:101A700053EC102B9DED140B51EC100B06F02CFECB
:101A8000CDE91A0148A8DDF8141600EBC10090ED6D
:101A9000000B8DED120B0DF5B061DDF8180601EBB2
:101AA000401090ED020B8DED100B9DED120B53ECE1
:101AB000102B9DED100B51EC100B06F00DFECDE937
:101AC000160140A9DDF8140601EBC00090ED000BF3
:101AD0008DED120B0DF5B061DDF8180601EB40102D
:101AE00090ED000B8DED100B9DED120B53EC102BB8
:101AF0009DED100B51EC100B06F0EEFDCDE914013D
:101B00009DED160B53EC102B9DED140B51EC100BAF
:101B100006F0CEFACDE918019DED1A0B53EC102B0F
:101B20009DED180B51EC100B06F0C2FACDE91C012B
:101B30009DED1E0B53EC102B9DED1C0B51EC100B6F
:101B400006F0B6FA20ABDDF8182603EB4213DDF8F9
:101B5000142603EBC20203C2DDF81406401C80B257
:101B6000CDF81406DDF814060428FFF64DAFDDF8B5
:101B70001806401C80B2CDF81806DDF818060428B7
:101B8000FFF63EAF9DED260B0DF5806080EDE60B78
:101B900080EDF20B9DED2E0B80EDE40B80EDF00B54
:101BA0009DED360B80EDE20B80EDEE0B90EDEC0B36
:101BB00080EDF80B90EDEA0B80EDF60B90EDE80B65
:101BC00080EDF40B90EDE60B53EC102B90EDEC0B4D
:101BD00051EC100B06F08CFF0DF5026203C20DF5FF
:101BE000806090EDE40B53EC102B90EDEA0B51EC80
:101BF000100B06F07DFF0DF6180203C20DF5806094
:101C000090EDE20B53EC102B90EDE80B51EC100B28
:101C100006F06EFF0DF5016203C29FEDFE1B0DF590
:101C2000006090ED040B04F0EBFC8DED1C0B9FEDC0
:101C3000F91B0DF5006090ED060B04F0E1FC8DED55
:101C4000180B9FEDF41B0DF5006090ED080B04F0F0
:101C5000D7FC8DED160B9DED180B53EC102B9DED65
:101C6000160B51EC100B06F023FACDE91A019DED8D
:101C70001C0B53EC102B9DED1A0B51EC100B06F0C6
:101C800017FACDE91E019DED1E0B05F039FB0DF590
:101C9000806080EDFC0B9FEDE10B53EC102B0DF5FC
:101CA000006090ED080B51EC100B06F013FE33D8DA
:101CB0000DF5806090EDFC0B53EC102B0DF50060E2
:101CC00090ED080B51EC100B06F0AEFA0DF5026228
:101CD00003C20DF5806090EDFC0B53EC102B0DF55D
:101CE000006090ED060B51EC100B06F09DFA0DF61E
:101CF000180203C20DF5806090EDFC0B53EC102B25
:101D00000DF5006090ED040B51EC100B06F08CFA11
:101D10000DF5016203C24DE00DF5006090ED080B7A
:101D200051EC100B06F0B8F9CDE91E010DF58060FD
:101D300090EDFC0B53EC102B9DED1E0B51EC100B9A
:101D400006F072FA0DF5026203C20DF5006090ED27
:101D5000060B51EC100B06F09FF9CDE91E010DF5B5
:101D6000806090EDFC0B53EC102B9DED1E0B51ECA5
:101D7000100B06F059FA0DF6180203C20DF50060BB
:101D800090ED040B51EC100B06F086F9CDE91E0125
:101D90000DF5806090EDFC0B53EC102B9DED1E0BB0
:101DA00051EC100B06F040FA0DF5016203C2012060
:101DB000CDF874089FED990B53EC102B0DF50060D6
:101DC00090ED080B51EC100B06F086FB1DD19FED3A
:101DD000930B53EC102B0DF5006090ED060B51ECBE
:101DE000100B06F079FB10D19FED8C0B0DF5006008
:101DF00080ED020B9FED8B0B80ED000B9FED870BB1
:101E00000DF5806080EDFE0B47E29FED840B53ECF7
:101E1000102B0DF5006090ED040B51EC100B06F04B
:101E20005BFB7DD19FED7D0B0DF5806080EDFE0BA2
:101E30009FED7A0B53EC102B0DF5006090ED080B25
:101E400051EC100B06F048FB0AD19FED740B0DF519
:101E5000006080ED000B9FED730B80ED020B1CE228
:101E60009FED6E0B53EC102B0DF5006090ED060B03
:101E700051EC100B06F030FB0AD19FED680B0DF50D
:101E8000006080ED020B9FED670B80ED000B04E21C
:101E90009FED660B0DF5006080ED000B90ED060BDD
:101EA00051EC100B06F0F8F8CDE91C010DF50060BF
:101EB00090ED080B53EC102B9DED1C0B51EC100B0F
:101EC00006F0B2F9CDE91E010DF5006090ED000BB2
:101ED00053EC102B9DED1E0B51EC100B06F0FCFB90
:101EE0000DF6080203C29FED4B1B0DF5006090ED4F
:101EF000020B04F085FB8DED1A0B9FED4E0B53EC9E
:101F0000102B9DED1A0B51EC100B06F0D1F8CDE91A
:101F10001C019DED1C0B05F0F3F98DED1E0B00E08F
:101F20003AE09DED1E0B53EC102B0DF5006090ED8B
:101F3000000B51EC100B06F077F90DF5006203C2AF
:101F40009FED341B0DF5006090ED020B04F058FB83
:101F50008DED1A0B9FED370B53EC102B9DED1A0BEB
:101F600051EC100B06F0A4F8CDE91C019DED1C0B03
:101F700005F0C6F98DED1E0B9DED1E0B53EC102BDD
:101F80000DF5006090ED020B51EC100B06F04CF9D2
:101F90000DF6080203C280E19FED200B53EC102BDD
:101FA0000DF5006090ED040B51EC100B06F092FC67
:101FB0007ED80DF5006090ED060B51EC100B06F08D
:101FC0006BF8CDE91E010DF5006090ED040B53ECAC
:101FD000102B9DED1E0B51EC100B06F07DFB0DF64A
:101FE000080203C20DF5006090ED040B53EC102BBA
:101FF00090ED080B51EC100B06F06EFB0DF5006236
:1020000003C20DF5006090ED080B51EC100B06F0CB
:1020100043F813E000000000000000400000000052
:1020200000000000000000000000F03F0000000081
:10203000000024400000000000005940CDE91E01CE
:102040000DF5006090ED060B53EC102B9DED1E0B73
:1020500051EC100B06F040FB0DF5FF6203C21FEDC3
:10206000131B0DF5806090EDFE0B04F0C9FA8DEDA9
:102070001C0B1FED181B0DF5006090ED000B04F01C
:10208000BFFA8DED180B1FED1D1B0DF5006090EDD7
:10209000020B04F0B5FA8DED160B9DED180B53EC09
:1020A000102B9DED160B51EC100B06F001F800E023
:1020B00045E0CDE91A019DED1C0B53EC102B9DED75
:1020C0001A0B51EC100B05F0F3FFCDE91E019DED4D
:1020D0001E0B05F015F90DF5806080EDFA0B90ED03
:1020E000FA0B53EC102B0DF5006090ED020B51EC48
:1020F000100B06F099F80DF6080203C20DF580608A
:1021000090EDFA0B53EC102B0DF5006090ED000BE9
:1021100051EC100B06F088F80DF5006203C20DF5C6
:10212000806090EDFA0B53EC102B90EDFE0B51EC10
:10213000100B06F079F80DF5FF6203C2ADE00DF566
:10214000006090ED040B53EC102B90ED060B51EC5E
:10215000100B06F0C1FA0DF6080203C20DF500607F
:1021600090ED080B51EC100B05F096FFCDE91E0128
:102170000DF5006090ED040B53EC102B9DED1E0B44
:1021800051EC100B06F0A8FA0DF5006203C20DF534
:10219000006090ED080B51EC100B05F07DFFCDE9D0
:1021A0001E010DF5006090ED060B53EC102B9DED1C
:1021B0001E0B51EC100B06F08FFA0DF5FF6203C2F7
:1021C0001FED6C1B0DF5806090EDFE0B04F018FA0E
:1021D0008DED1C0B1FED711B0DF5006090ED000BDC
:1021E00004F00EFA8DED180B1FED761B0DF5006057
:1021F00090ED020B04F004FA8DED160B9DED180B1B
:1022000053EC102B9DED160B51EC100B05F050FF0D
:10221000CDE91A019DED1C0B53EC102B9DED1A0B13
:1022200051EC100B05F044FFCDE91E019DED1E0B96
:1022300005F066F80DF5806080EDFA0B90EDFA0B75
:1022400053EC102B0DF5006090ED020B51EC100BD0
:1022500005F0EAFF0DF6080203C20DF5806090ED6F
:10226000FA0B53EC102B0DF5006090ED000B51ECC8
:10227000100B05F0D9FF0DF5006203C20DF580606B
:1022800090EDFA0B53EC102B90EDFE0B51EC100B74
:1022900005F0CAFF0DF5FF6203C20DF5006090ED79
:1022A000040B53EC102B90ED000B51EC100B06F0CF
:1022B00013FACDE91E010DF5806090EDFE0B53EC95
:1022C000102B0DF5006090ED060B51EC100B06F095
:1022D00003FACDE91C019DED1E0B53EC102B9DED77
:1022E0001C0B51EC100B06F003FC0DF6380203C278
:1022F0000DF5806090EDFE0B53EC102B0DF500609A
:1023000090ED080B51EC100B06F0E6F9CDE91E013B
:102310000DF5006090ED040B53EC102B90ED020BCB
:1023200051EC100B06F0D8F9CDE91C019DED1E0B08
:1023300053EC102B9DED1C0B51EC100B06F0D8FB51
:102340000DF5036203C20DF5006090ED060B53EC32
:10235000102B90ED020B51EC100B06F0BDF9CDE9FE
:102360001E010DF5006090ED000B53EC102B90ED6D
:10237000080B51EC100B06F0AFF9CDE91C019DEDF7
:102380001E0B53EC102B9DED1C0B51EC100B06F0AB
:10239000AFFB0DF6280203C20DF6380003C80DF698
:1023A000680203C20DF5036003C80DF5066203C29F
:1023B0000DF6280003C80DF6580203C2603A92EDEC
:1023C000020B82ED140B92ED000B82ED120B0DF55A
:1023D000806292EDFE0B0DF5006282ED100B1FED99
:1023E000F10B0DF5806282ED960B0120CDF804060D
:1023F0000020CDF8700802F08CBB0DF5806090EDE8
:10240000F80B53EC102B90EDF20B51EC100B06F087
:1024100061FA02D2DDF8740880B10DF5806090EDAC
:10242000F80B53EC102B90EDF20B51EC100B06F067
:1024300017F911D2DDF8740801280DD10DF580606F
:1024400090EDF80B80EDF20B90EDF60B80EDF00BBC
:1024500090EDF40B80EDEE0BDDF80406032811D1AE
:102460009FEDF90B53EC102B0DF5806090ED960B62
:1024700051EC100B05F01CFE0DF5CB6203C20120E0
:10248000CDF80406DDF87808C8B99FEDF10B53ECE0
:10249000102B0DF5806090ED960B51EC100B06F0B3
:1024A00019FA0CD30DF5806090EDE60B53EC102B70
:1024B00090EDF20B51EC100B06F00EF87DD10DF6FD
:1024C000680106C90DF6380006C00DF5066106C99B
:1024D0000DF5036006C00DF6580106C90DF628007B
:1024E00006C0303890ED140B80ED020B90ED120B0E
:1024F00080ED000B90ED100B0DF5806080EDFE0B74
:10250000DDF87408F0BB0DF5006090ED080B53EC9E
:10251000102B9FEDD10B51EC100B06F0DDF8CDE93F
:102520001E010DF5806090EDF20B53EC102B9DED2C
:102530001E0B51EC100B05F0BBFD0DF5F96203C24B
:102540000DF5006090ED060B53EC102B9FEDC20BC8
:1025500051EC100B06F0C0F8CDE91E010DF58060BE
:1025600090EDF00B53EC102B9DED1E0B51EC100B6E
:1025700005F09EFD0DF5F86203C20DF5006090EDCB
:10258000040B00E01AE053EC102B9FEDB30B51EC61
:10259000100B06F0A1F8CDE91E010DF5806090ED5D
:1025A000EE0B53EC102B9DED1E0B51EC100B05F0B8
:1025B0007FFD0DF5F76203C257E05FE00DF50060A7
:1025C00090ED080B53EC102B9FEDA30B51EC100B6F
:1025D00006F082F8CDE91E010DF5806090EDF20B5A
:1025E00053EC102B9DED1E0B51EC100B06F0A8F9CF
:1025F0000DF5F96203C20DF5006090ED060B53EC8A
:10260000102B9FED950B51EC100B06F065F8CDE902
:102610001E010DF5806090EDF00B53EC102B9DED3D
:102620001E0B51EC100B06F08BF90DF5F86203C28E
:102630000DF5006090ED040B53EC102B9FED860B15
:1026400051EC100B06F048F8CDE91E010DF5806045
:1026500090EDEE0B53EC102B9DED1E0B51EC100B7F
:1026600006F06EF90DF5F76203C29FED7D0B0DF5D7
:10267000806080ED960B0120CDF804060DF580609A
:1026800090EDD80B53EC102B0DF5006090ED020B84
:1026900051EC100B06F020F8CDE91E010DF580601D
:1026A00090EDF20B53EC102B9DED1E0B51EC100B2B
:1026B00006F046F90DF5F66203C20DF5806090ED67
:1026C000D80B53EC102B0DF5006090ED000B51EC86
:1026D000100B06F001F8CDE91E010DF5806090EDBC
:1026E000F00B53EC102B9DED1E0B51EC100B06F074
:1026F00027F90DF5F56203C20DF5806090EDD80B5A
:1027000053EC102B90EDFE0B51EC100B05F0E4FF99
:10271000CDE91E010DF5806090EDEE0B53EC102B12
:102720009DED1E0B51EC100B06F00AF90DF5F4624D
:1027300003C20DF5806090EDEC1B90EDEA0B03F009
:10274000F7FD0DF5806080EDC80B0020CDF878080E
:102750000120CDF82C060020CDF82806FDE39FEDE2
:10276000420B53EC102B0DF5806090EDC80B51EC33
:10277000100B06F0AFF813D29FED3D0B53EC102B6E
:102780000DF5806090EDC80B51EC100B05F068FF63
:1027900006D20DF5806090EDC80B80EDD40BD0E033
:1027A0009FED350B53EC102B0DF5806090EDC80BB1
:1027B00051EC100B06F08EF81CD29FED250B53EC5C
:1027C000102B0DF5806090EDC80B51EC100B05F04F
:1027D00047FF0FD89FED1E0B53EC102B0DF58060BB
:1027E00090EDC80B51EC100B06F082F90DF5EA6282
:1027F00003C2A6E09FED220B53EC102B0DF5806079
:1028000090EDC80B51EC100B06F064F840D89FED2A
:102810001E0B53EC102B0DF5806090EDC80B51ECA6
:10282000100B05F01DFF33D29FED090B53EC102B5D
:102830000DF5806090EDC80B51EC100B05F038FCE5
:102840000DF5EA6203C27CE0839952A246DF913F14
:10285000E0274454FB210940000000000000244010
:102860000000000000000000EB6F2D3852C1E0BFF7
:10287000EB6F2D3852C1E03FE6CB38C6A6F10440DD
:10288000E0274454FB2109C0E6CB38C6A6F104C0BA
:102890001FED090B53EC102B0DF5806090EDC80B6C
:1028A00051EC100B06F016F82CD81FED0D0B53EC65
:1028B000102B0DF5806090EDC80B51EC100B05F05E
:1028C000CFFE1FD8DDF8280660B9DDF82C06401CC5
:1028D00080B2CDF82C060DF5806090EDC80B80ED30
:1028E000D40B2EE01FED260B53EC102B0DF5806062
:1028F00090EDC80B51EC100B06F0FAF80DF5EA62FA
:1029000003C21EE0DDF8280660B9DDF82C06401C85
:1029100080B2CDF82C060DF5806090EDC80B80EDEF
:10292000D40B0EE01FED360B53EC102B0DF5806031
:1029300090EDC80B51EC100B05F0BAFB0DF5EA62F7
:1029400003C20DF5806090EDE00B53EC102B9FED72
:10295000FE0B51EC100B05F0BFFE9FEDFB1BCDE90C
:102960001E010DF5806090EDDC0B03F049FE8DED4E
:102970001A0B9FEDF51B0DF5806090EDDE0B03F05B
:102980003FFE8DED160B9FEDF01B0DF5806090ED79
:10299000E00B03F035FE8DED120B9FEDEB1B0DF5FB
:1029A000806090EDE80B03F02BFE8DED0E0B9FED9C
:1029B000E61B0DF5806090EDEA0B03F021FE8DED36
:1029C0000A0B9FEDE11B0DF5806090EDEC0B03F021
:1029D00017FE8DED080B9DED0A0B53EC102B9DEDB2
:1029E000080B51EC100B05F063FBCDE90C019DEDDC
:1029F0000E0B53EC102B9DED0C0B51EC100B05F056
:102A000057FBCDE910019DED120B53EC102B9DED02
:102A1000100B51EC100B06F06BF8CDE914019DED95
:102A2000160B53EC102B9DED140B51EC100B06F014
:102A30005FF8CDE918019DED1A0B53EC102B9DEDBD
:102A4000180B51EC100B06F053F8CDE91C019DED6D
:102A50001E0B53EC102B9DED1C0B51EC100B05F0D5
:102A6000E3FB0DF5DD6203C29FEDB71B0DF5806042
:102A700090EDBA0B03F0C4FD8DED1E0B9FEDB21B64
:102A80000DF5806090EDDC0B03F0BAFD8DED1A0BB7
:102A90009FEDAD1B0DF5806090EDDE0B03F0B0FDFA
:102AA0008DED180B9DED1A0B53EC102B9DED180BB3
:102AB00051EC100B05F0FCFACDE91C019DED1E0B4D
:102AC00053EC102B9DED1C0B51EC100B06F010F885
:102AD0000DF5DC6203C20DF5806090EDB80B04F0DB
:102AE0000FFC8DED1A0B9DED1A1B0DF5806090ED1E
:102AF000BA0B03F01DFC8DED1E0B0DF5806090ED03
:102B0000DC1B90EDDE0B03F013FC8DED1C0B9DED3B
:102B10001E0B53EC102B9DED1C0B51EC100B05F014
:102B2000E7FF0DF5E86203C20120CDF8240600207E
:102B3000CDF82006F3E39FED860B53EC102B0DF53B
:102B4000806090EDD00B51EC100B05F0C3FE15D852
:102B50009FED810B53EC102B0DF5806090EDD00BA9
:102B600051EC100B05F07CFD08D8DDF8200628B9E3
:102B7000DDF82406401C80B2CDF82406DDF82406DA
:102B8000012802D1DDF8200638B1DDF8240602283C
:102B90004FD1DDF8200601284BD10DF5806090ED76
:102BA000B80B04F0ADFB8DED180B9DED180B51EC3F
:102BB000100B05F071FACDE91A019DED1A1B0DF508
:102BC000806090EDBA0B03F0B3FB8DED1E0B0DF59D
:102BD000806090EDDC1B90EDDE0B03F0A9FB8DED2A
:102BE0001C0B9DED1E0B53EC102B9DED1C0B51ECA3
:102BF000100B05F07DFF0DF5E86203C29FED540B4D
:102C000053EC102B0DF5806090EDD00B51EC100BB8
:102C100005F026FD0CD39FED500B53EC102B0DF55A
:102C2000806090EDD00B51EC100B05F053FE00D2FC
:102C3000FDE30DF5806090EDD00B04F0FDFA8DED15
:102C4000140B0DF5806090EDE00B53EC102B9DED17
:102C5000140B51EC100B05F03FFDCDE916010DF5FD
:102C6000806090EDDC0B53EC102B9DED160B51ECBE
:102C7000100B05F03DFFCDE91A010DF5806090EDD8
:102C8000D40B04F0D9FA8DED120B0DF5806090EDA8
:102C9000EA0B53EC102B9DED120B51EC100B05F0D1
:102CA0001BFDCDE916010DF5806090EDD40B03F00E
:102CB00037FC8DED120B0DF5806090EDEC0B53ECB5
:102CC000102B9DED120B51EC100B05F005FDCDE91D
:102CD00014019DED160B53EC102B9DED140B51ECD4
:102CE000100B05F0E5F9CDE918019DED1A0B53EC39
:102CF000102B9DED180B51EC100B05F0EDFCCDE900
:102D00001E010DF5806090EDD00B03F009FC8DEDF8
:102D1000140B0DF5806090EDE00B53EC102B9DED46
:102D2000140B51EC100B05F0D7FCCDE916010DF595
:102D3000806090EDDE0B53EC102B9DED160B51ECEB
:102D4000100B05F0B5F90BE000000000000000409A
:102D5000EB6F2D3852C100C0DD0FA15DDEECEB3F03
:102D6000CDE918019DED180B51EC100B05F094F90D
:102D7000CDE91A010DF5806090EDE80B53EC102BB6
:102D80009DED1A0B51EC100B05F0A6FCCDE91C01D2
:102D90009DED1E0B53EC102B9DED1C0B51EC100BFD
:102DA00005F086F90DF5DB6203C20DF5806090ED4C
:102DB000D00B03F0B5FB8DED140B0DF5806090ED9D
:102DC000E00B53EC102B9DED140B51EC100B05F0A8
:102DD00083FCCDE916010DF5806090EDDE0B53EC20
:102DE000102B9DED160B51EC100B05F061F9CDE9A0
:102DF0001A010DF5806090EDD40B04F01DFA8DEDF5
:102E0000120B0DF5806090EDEA0B53EC102B9DED4D
:102E1000120B51EC100B05F05FFCCDE916010DF51E
:102E2000806090EDD40B03F07BFB8DED120B0DF564
:102E3000806090EDEC0B53EC102B9DED120B51ECE0
:102E4000100B05F049FCCDE914019DED160B53EC78
:102E5000102B9DED140B51EC100B05F029F9CDE969
:102E600018019DED1A0B53EC102B9DED180B51EC36
:102E7000100B05F031FCCDE91E010DF5806090EDE1
:102E8000D00B04F0D9F98DED160B0DF5806090EDA7
:102E9000E00B53EC102B9DED160B51EC100B05F0D5
:102EA0001BFCCDE918010DF5806090EDDC0B53ECB7
:102EB000102B9DED180B51EC100B05F019FECDE910
:102EC0001A010DF5806090EDE80B53EC102B9DED91
:102ED0001A0B51EC100B05F0FFFBCDE91C019DED29
:102EE0001E0B53EC102B9DED1C0B51EC100B05F041
:102EF000DFF80DF5DA6203C20DF5806090EDB41BCA
:102F000090EDB60B03F014FA8DED1E0B0DF58060FD
:102F100090EDD00B53EC102B9DED1E0B51EC100BD4
:102F200005F0E6FD0DF5E96203C29FEDFD0B53ECE4
:102F3000102B0DF5806090EDD20B51EC100B05F0CD
:102F4000C9FC7CD89FEDF80B53EC102B0DF580607D
:102F500090EDD20B51EC100B00E0FCE305F080FB90
:102F6000EFD80DF5806090EDD40B04F065F98DED90
:102F70001A0B0DF5006090ED020B53EC102B9DED3C
:102F80001A0B51EC100B05F0A7FBCDE91E010DF556
:102F9000806090EDD40B03F0C3FA8DED1A0B0DF5A4
:102FA000006090ED000B53EC102B9DED1A0B51ECD3
:102FB000100B05F091FBCDE91C019DED1E0B53ECB0
:102FC000102B9DED1C0B51EC100B05F091FD0DF538
:102FD000D96203C20DF5806090EDD00B53EC102B3D
:102FE00090EDD20B51EC100B05F062F8CDE9160113
:102FF0009DED160B03F094FA8DED1A0B0DF5806024
:1030000090EDD40B04F018F98DED160B0DF5006062
:1030100090ED000B53EC102B9DED160B51EC100BAB
:1030200005F05AFBCDE918019DED1A0B53EC102B5E
:103030009DED180B51EC100B05F04EFB00E036E156
:10304000CDE91E010DF5806090EDD00B53EC102BF7
:1030500090EDD20B51EC100B05F02AF8CDE91201DE
:103060009DED120B03F05CFA8DED160B0DF58060F3
:1030700090EDD40B03F054FA8DED120B0DF50060BA
:1030800090ED020B53EC102B9DED120B51EC100B3D
:1030900005F022FBCDE914019DED160B53EC102B2E
:1030A0009DED140B51EC100B05F016FBCDE91A0148
:1030B0000DF5806090EDD00B53EC102B90EDD20B02
:1030C00051EC100B04F0F4FFCDE914019DED140B4D
:1030D00004F0B2F88DED160B0DF5806090EDFE0B4F
:1030E00053EC102B9DED160B51EC100B05F0F4FA80
:1030F000CDE918019DED1A0B53EC102B9DED180B2B
:1031000051EC100B05F0F4FCCDE91C019DED1E0BFC
:1031100053EC102B9DED1C0B51EC100B05F0E8FC53
:103120000DF5D86203C20DF5806090EDB20B03F08F
:103130005BFA8DED1E0B9FED7E0B53EC102B9DED7E
:103140001E0B51EC100B05F08BFA19D20DF58060B7
:1031500090EDB00B03F048FA8DED1E0B9FED740B54
:1031600053EC102B9DED1E0B51EC100B05F078FA73
:1031700006D29FED710B0DF5806080EDCE0B0BE05C
:103180000DF5806090EDB01B90EDB20B03F0D0F820
:103190000DF5806080EDCE0B9FED690B53EC102B8D
:1031A0000DF5806090EDCE0B51EC100B05F092FB0D
:1031B0007DD89FED650B53EC102B0DF5806090EDE5
:1031C000CE0B51EC100B05F04BFAF1D80DF58060E9
:1031D00090EDCE0B04F030F88DED140B0DF5806002
:1031E00090EDD40B03F09CF98DED120B9DED140BBB
:1031F00053EC102B9DED120B51EC100B05F06CFAFB
:10320000CDE918010DF5806090EDCE0B03F088F943
:103210008DED140B0DF5806090EDD00B53EC102B61
:1032200090EDD20B51EC100B04F042FFCDE90C01F4
:103230009DED0C0B03F074F98DED100B0DF5806016
:1032400090EDD40B03F0F8FF8DED0E0B9DED100B00
:1032500053EC102B9DED0E0B51EC100B05F03CFACE
:10326000CDE912019DED140B53EC102B9DED120BCB
:1032700051EC100B05F030FACDE916019DED180B5D
:1032800053EC102B9DED160B51EC100B05F030FCA0
:10329000CDE91A010DF5006090ED000B53EC102BF9
:1032A0009DED1A0B51EC100B05F016FA00E022E22E
:1032B000CDE91E010DF5806090EDCE0B03F0BCFF53
:1032C0008DED100B0DF5806090EDD40B03F0B4FF85
:1032D0008DED0E0B9DED100B53EC102B9DED0E0B99
:1032E00051EC100B05F0F8F9CDE914010DF58060F3
:1032F00090EDCE0B03F014F98DED100B0DF5806001
:1033000090EDD00B53EC102B90EDD20B51EC100B39
:1033100004F0CEFECDE908019DED080B18E0FCE3BA
:10332000E9E3DBBCC32602C0DD0FA15DDEECEBBF31
:1033300011EA2D819997713D000000000000000006
:10334000E6CB38C6A6F104C0E6CB38C6A6F10440E9
:1033500003F0E6F88DED0C0B0DF5806090EDD40BCD
:1033600003F0DEF88DED0A0B9DED0C0B53EC102BEA
:103370009DED0A0B51EC100B05F0AEF9CDE90E01F5
:103380009DED100B53EC102B9DED0E0B51EC100B23
:1033900005F0A2F9CDE912019DED140B53EC102BB1
:1033A0009DED120B51EC100B04F082FECDE91601DD
:1033B0000DF5006090ED020B53EC102B9DED160BFC
:1033C00051EC100B05F088F9CDE91A010DF580607C
:1033D00090EDCE0B03F0A4F88DED160B0DF580608B
:1033E00090EDD00B53EC102B90EDD20B51EC100B59
:1033F00004F05EFECDE910019DED100B03F01CFF03
:103400008DED120B0DF5806090EDFE0B53EC102B43
:103410009DED120B51EC100B05F05EF9CDE9140196
:103420009DED160B53EC102B9DED140B00E0FCE30F
:1034300051EC100B05F050F9CDE918019DED1A0B78
:1034400053EC102B9DED180B51EC100B05F050FBBD
:10345000CDE91C019DED1E0B53EC102B9DED1C0BBB
:1034600051EC100B05F044FB0DF5D76203C20DF5CE
:10347000806090EDD00B53EC102B90EDD20B51EC03
:10348000100B04F015FECDE918019DED180B03F0AB
:1034900047F88DED1A0B0DF5806090EDFE0B53ECA7
:1034A000102B9DED1A0B51EC100B05F015F9CDE921
:1034B0001E010DF5806090EDD00B53EC102B90EDBC
:1034C000D20B51EC100B04F0F3FDCDE912019DED90
:1034D000120B03F0B1FE8DED160B0DF5806090ED33
:1034E000D40B03F0A9FE8DED120B0DF5006090EDED
:1034F000000B53EC102B9DED120B51EC100B05F053
:10350000EBF8CDE914019DED160B53EC102B9DED5E
:10351000140B51EC100B05F0DFF8CDE91A010DF595
:10352000806090EDD00B53EC102B90EDD20B51EC52
:10353000100B04F0BDFDCDE912019DED120B03F05F
:103540007BFE8DED160B0DF5806090EDD40B02F037
:10355000E7FF8DED120B0DF5006090ED020B51ECC5
:10356000100B04F099FDCDE910019DED120B53EC09
:10357000102B9DED100B51EC100B05F0ADF8CDE9C3
:1035800014019DED160B53EC102B9DED140B51EC1B
:10359000100B05F0A1F8CDE918019DED1A0B53ECC5
:1035A000102B9DED180B51EC100B05F0A1FACDE995
:1035B0001C019DED1E0B53EC102B9DED1C0B51ECD3
:1035C000100B05F095FA0DF5D66203C20DF580607B
:1035D00090EDAC1B90EDAE0B02F0AAFE0DF58060F5
:1035E00080EDCC0B9FEDFE0B53EC102B90EDCC0B34
:1035F00051EC100B05F06EF97DD89FEDFB0B53ECF1
:10360000102B0DF5806090EDCC0B51EC100B05F0FC
:1036100027F8F1D80DF5806090EDCE0B02F080FF19
:103620008DED140B0DF5806090EDD40B02F078FF5A
:103630008DED120B9DED140B53EC102B9DED120B29
:1036400051EC100B05F048F8CDE918010DF580603C
:1036500090EDCE0B03F0F0FD8DED140B0DF58060B9
:1036600090EDD00B53EC102B90EDD20B51EC100BD6
:1036700004F01EFDCDE90C019DED0C0B02F050FF96
:103680008DED100B0DF5806090EDD40B03F0D4FDA3
:103690008DED0E0B9DED100B53EC102B9DED0E0BD5
:1036A00051EC100B05F018F8CDE912019DED140B4B
:1036B00053EC102B9DED120B51EC100B05F00CF898
:1036C000CDE916019DED180B53EC102B9DED160B5B
:1036D00051EC100B04F0ECFCCDE91A010DF5006083
:1036E00090ED0C0B53EC102B9DED1A0B51EC100BC5
:1036F00004F0F2FF00E070E3CDE91E010DF58060FB
:1037000090EDCE0B02F00CFF8DED100B0DF58060EF
:1037100090EDD40B03F090FD8DED0E0B9DED100B95
:1037200053EC102B9DED0E0B51EC100B04F0D4FF5D
:10373000CDE914010DF5806090EDCE0B03F07CFD1A
:103740008DED100B0DF5806090EDD00B53EC102B30
:1037500090EDD20B00E053E351EC100B04F0A8FC09
:10376000CDE908019DED080B02F0DAFE8DED0C0BA2
:103770000DF5806090EDD40B02F0D2FE8DED0A0BBA
:103780009DED0C0B53EC102B9DED0A0B51EC100B27
:1037900004F0A2FFCDE90E019DED100B53EC102BB0
:1037A0009DED0E0B51EC100B04F096FFCDE91201CC
:1037B0009DED140B53EC102B9DED120B51EC100BE7
:1037C00005F096F9CDE916010DF5006090ED0E0BB0
:1037D00053EC102B9DED160B51EC100B04F07CFFFD
:1037E000CDE91A010DF5806090EDCE0B03F024FDBC
:1037F0008DED160B0DF5806090EDD00B53EC102B7A
:1038000090EDD20B51EC100B04F052FCCDE91001FD
:103810009DED100B03F010FD8DED120B0DF500600A
:1038200090ED0A0B53EC102B9DED120B51EC100B8D
:1038300004F052FFCDE914019DED160B53EC102B53
:103840009DED140B51EC100B04F046FFCDE918016F
:103850009DED1A0B53EC102B9DED180B51EC100B3A
:1038600005F046F9CDE91C019DED1E0B53EC102B24
:103870009DED1C0B51EC100B05F03AF90DF5D562DE
:1038800003C20DF5806090EDCC0B03F0D5FC8DEDFF
:10389000140B0DF5806090EDD00B53EC102B90EDD8
:1038A000D20B51EC100B04F003FCCDE910019DED9F
:1038B000100B02F035FE8DED120B9DED140B53EC49
:1038C000102B9DED120B51EC100B04F005FFCDE910
:1038D00018010DF5806090EDCC0B02F021FE8DED0E
:1038E000140B0DF5806090EDCE0B02F019FE8DEDFE
:1038F000100B0DF5806090EDD00B53EC102B90ED7C
:10390000D20B51EC100B04F0D3FBCDE90C019DED73
:103910000C0B03F091FC8DED0E0B9DED100B53EC99
:10392000102B9DED0E0B51EC100B04F0D5FECDE9E4
:1039300012019DED140B53EC102B9DED120B51EC6D
:10394000100B04F0C9FECDE916019DED180B53ECE8
:10395000102B9DED160B51EC100B04F0A9FBCDE9DB
:103960001A010DF5006090ED0A0B53EC102B9DED44
:103970001A0B51EC100B04F0AFFECDE91E010DF552
:10398000806090EDCC0B03F057FC8DED100B0DF526
:10399000806090EDD00B53EC102B90EDD20B51ECDE
:1039A000100B04F085FBCDE908019DED080B03F039
:1039B00043FC8DED0C0B0DF5806090EDD40B03F006
:1039C0003BFC8DED0A0B9DED0C0B53EC102B9DED8C
:1039D0000A0B51EC100B04F07FFECDE90E0107E05D
:1039E000E43FE74A1857D6BFE7578A41358C034072
:1039F0009DED100B53EC102B9DED0E0B51EC100BAD
:103A000004F06AFECDE914010DF5806090EDCC0B59
:103A100002F086FD8DED100B0DF5806090EDCE0B64
:103A200003F00AFC8DED080B0DF5806090EDD40BD2
:103A300002F076FD8DED060B9DED080B53EC102B7F
:103A40009DED060B51EC100B04F046FECDE90C0188
:103A50000DF5806090EDCE0B02F062FD8DED080B50
:103A60000DF5806090EDD00B53EC102B90EDD20B48
:103A700051EC100B04F01CFBCDE900019DED000B97
:103A800002F04EFD8DED040B0DF5806090EDD40B32
:103A900003F0D2FB8DED020B9DED040B53EC102BCC
:103AA0009DED020B51EC100B04F016FECDE9060162
:103AB0009DED080B53EC102B9DED060B51EC100BFC
:103AC00004F00AFECDE90A019DED0C0B53EC102B1E
:103AD0009DED0A0B51EC100B05F00AF8CDE90E0133
:103AE0009DED100B53EC102B9DED0E0B51EC100BBC
:103AF00004F0F2FDCDE912019DED140B53EC102BF7
:103B00009DED120B51EC100B04F0F2FFCDE9160104
:103B10000DF5006090ED0C0B00E065E153EC102B0F
:103B20009DED160B51EC100B04F0D6FDCDE91A01FA
:103B30000DF5806090EDCC0B03F07EFB8DED100B4E
:103B40000DF5806090EDD00B53EC102B90EDD20B67
:103B500051EC100B04F0ACFACDE908019DED080B17
:103B600003F06AFB8DED0C0B0DF5806090EDD40B2E
:103B700002F0D6FC8DED0A0B9DED0C0B53EC102BD7
:103B80009DED0A0B51EC100B04F0A6FDCDE90E01E2
:103B90009DED100B53EC102B9DED0E0B51EC100B0B
:103BA00004F09AFDCDE914010DF5806090EDCC0B89
:103BB00002F0B6FC8DED100B0DF5806090EDCE0B94
:103BC00003F03AFB8DED080B0DF5806090EDD40B02
:103BD00003F032FB8DED060B9DED080B53EC102B23
:103BE0009DED060B51EC100B04F076FDCDE90C01B8
:103BF0000DF5806090EDCE0B02F092FC8DED080B80
:103C00000DF5806090EDD00B53EC102B90EDD20BA6
:103C100051EC100B04F04CFACDE900019DED000BC6
:103C200002F07EFC8DED040B00E0D7E00DF5806026
:103C300090EDD40B02F074FC8DED020B9DED040BA6
:103C400053EC102B9DED020B51EC100B04F044FDD6
:103C5000CDE906019DED080B53EC102B9DED060BF5
:103C600051EC100B04F038FDCDE90A019DED0C0B71
:103C700053EC102B9DED0A0B51EC100B04F018FACD
:103C8000CDE90E019DED100B53EC102B9DED0E0BAD
:103C900051EC100B04F020FDCDE912019DED140B49
:103CA00053EC102B9DED120B51EC100B04F020FF88
:103CB000CDE916010DF5006090ED0E0B53EC102BC5
:103CC0009DED160B51EC100B04F006FDCDE918012B
:103CD0009DED1A0B53EC102B9DED180B51EC100BB6
:103CE00004F0E6F9CDE91C019DED1E0B53EC102B01
:103CF0009DED1C0B51EC100B04F0FAFE0DF5D46297
:103D000003C20DF5806090EDA81B90EDAA0B02F0A8
:103D10000FFB0DF5806080EDCA0B9FEDFE0B53ECA1
:103D2000102B90EDCA0B51EC100B04F0D3FD54D8BE
:103D30009FEDFA0B53EC102B0DF5806090EDCA0B44
:103D400051EC100B04F08CFC47D80DF5806090ED21
:103D5000D40B0DF5E361DDF8780801EBC00080EDD0
:103D6000000B0DF5806090EDD20B0839DDF8780876
:103D700001EBC00080ED000B0DF5806090EDD00BE5
:103D80000839DDF8780801EBC00080ED000B0DF577
:103D9000806090EDCE0B0839DDF8780801EBC000AB
:103DA00080ED000B0DF5806090EDCC0B0839DDF84F
:103DB000780801EBC00080ED000B0DF5806090ED00
:103DC000CA0B0839DDF8780801EBC00080ED000B64
:103DD000DDF87808401CCDF8780800BFDDF8200633
:103DE000401C80B2CDF820060DF5C46003C888429F
:103DF000FEF6A1AEDDF82806401C80B2CDF82806FC
:103E00000DF5C56003C88842FEF6A9ACDDF8780858
:103E100000287DD00DF5806090EDC60B8DED140B64
:103E20009FEDC00B53EC102B9DED140B51EC100BC0
:103E300004F0FAF99FEDBD0B53EC102BCDE9160100
:103E40009DED160B51EC100B04F032F99FEDB90B00
:103E500053EC102BCDE918019DED180B51EC100B14
:103E600004F03AFC9FEDB50B53EC102BCDE91A0191
:103E70009DED1A0B51EC100B04F0D6F99FEDB10B30
:103E800053EC102BCDE91C019DED1C0B51EC100BDC
:103E900004F02EFECDE91E019DED1E0B51EC100B22
:103EA00004F086FB80B2CDF844060DF5806090EDFD
:103EB000C40B8DED140B9FED9B0B53EC102B9DED64
:103EC000140B51EC100B04F0AFF99FEDA00B53EC69
:103ED000102BCDE916019DED160B51EC100B04F0E3
:103EE000E7F89FED940B53EC102BCDE918019DEDF5
:103EF000180B51EC100B04F0EFFB9FED900B53EC03
:103F0000102BCDE91A019DED1A0B51EC100B00E0BE
:103F10008FE104F089F99FED8B0B53EC102BCDE969
:103F20001C019DED1C0B51EC100B04F0E1FDCDE9E3
:103F30001E019DED1E0B51EC100B04F039FB80B2FD
:103F4000CDF840060DF5806090EDC20B8DED140BA1
:103F50009FED740B53EC102B9DED140B51EC100BDB
:103F600004F062F99FED710B53EC102BCDE91601B3
:103F70009DED160B51EC100B04F0E2FC9FED6D0B68
:103F800053EC102BCDE918019DED180B51EC100BE3
:103F900004F0A2FB9FED690B53EC102BCDE91A0145
:103FA0009DED1A0B51EC100B04F03EF99FED690BDF
:103FB00053EC102BCDE91C019DED1C0B51EC100BAB
:103FC00004F076F8CDE91E019DED1E0B51EC100BAF
:103FD00004F0EEFA81B2CDF83C160DF5806090ED5C
:103FE000C00B8DED140B9FED4F0B53EC102B9DED83
:103FF000140B51EC100B04F017F99FED580B53EC18
:10400000102BCDE916019DED160B51EC100B04F0B1
:104010004FF89FED480B53EC102BCDE918019DEDA7
:10402000180B51EC100B04F057FB9FED440B53ECB5
:10403000102BCDE91A019DED1A0B51EC100B04F079
:10404000F3F89FED400B53EC102BCDE91C019DEDD7
:104050001C0B51EC100B04F02BF8CDE91E019DED6B
:104060001E0B51EC100B04F0A3FA80B2CDF8380609
:104070000DF5806090EDBE0B8DED140B9FED290BBF
:1040800053EC102B9DED140B51EC100B04F0CCF8FD
:104090009FED320B53EC102BCDE916019DED160B65
:1040A00051EC100B04F04CFC9FED220B53EC102B49
:1040B000CDE918019DED180B51EC100B04F00CFB31
:1040C0009FED1E0B53EC102BCDE91A019DED1A0B41
:1040D00051EC100B04F0A8F89FED220B53EC102BC1
:1040E000CDE91C019DED1C0B51EC100B03F0E0FF22
:1040F000CDE91E019DED1E0B51EC100B04F058FA9A
:1041000081B2CDF834160DF5806090EDBC0B8DEDCD
:10411000140B2BE0E6CB38C6A6F104C0E6CB38C6BC
:10412000A6F10440839952A246DF913F00000000AF
:1041300000004E400000000000F88F40000000002A
:1041400000C07240000000000000084000000000B5
:1041500000006E400000000000001C400000000055
:1041600000C0624000000000000020401FED130B63
:1041700053EC102B9DED140B51EC100B04F054F884
:104180001FED0A0B53EC102BCDE916019DED160B1C
:1041900051EC100B03F08CFF1FED1A0B53EC102B9E
:1041A000CDE918019DED180B51EC100B04F094FAB9
:1041B0001FED1E0B53EC102BCDE91A019DED1A0BD0
:1041C00051EC100B04F030F81FED220B53EC102BC8
:1041D000CDE91C019DED1C0B51EC100B04F088FC8B
:1041E000CDE91E019DED1E0B51EC100B04F0E0F922
:1041F00080B2CDF83006C8220DF5C66003C8CDE9FF
:104200000412CDE906020DF5C76003C8CDE900121E
:104210001346CDE90202C821DDF84026DDF8440648
:1042200000F066FF4FF4FA7003F018FD0220CDF89D
:104230007008DDF8780800287DD1DDF80406012833
:104240007AD10DF5006090ED040B53EC102B90ED3E
:10425000120B51EC100B04F03FFACDE91A010DF5E9
:10426000006090ED060B53EC102B90ED100B51EC11
:10427000100B04F031FACDE918019DED1A0B53EC47
:10428000102B9DED180B51EC100B04F031FCCDE917
:104290001E010DF5806090ED960B02F041F98DED59
:1042A0001A0B0DF5006090ED060B53EC102B9DEDF5
:1042B0001A0B51EC100B04F00FFACDE91C019DED27
:1042C0001E0B53EC102B9DED1C0B51EC100B03F04F
:1042D000ABFF0DF5D16203C20DF5006090ED040B4C
:1042E00053EC102B90ED120B51EC100B04F0F4F981
:1042F000CDE91A010DF5006090ED060B53EC102B83
:1043000090ED100B51EC100B04F0E6F9CDE918011B
:104310009DED1A0B53EC102B9DED180B51EC100B6F
:1043200004F0E6FBCDE91E010DF5006090ED080BF1
:1043300053EC102B01E085E285E290ED120B51EC7D
:10434000100B04F0C9F9CDE91A010DF5006090EDEC
:10435000060B53EC102B90ED140B51EC100B04F0EA
:10436000BBF9CDE918019DED1A0B53EC102B9DED17
:10437000180B51EC100B04F0BBFBCDE91C019DEDBB
:104380001E0B53EC102B9DED1C0B51EC100B03F08E
:104390004BFF0DF5D06203C20DF5006090ED040BEC
:1043A00053EC102B90ED100B51EC100B04F094F922
:1043B000CDE91A010DF5006090ED040B53EC102BC4
:1043C00090ED120B51EC100B04F086F9CDE91801B9
:1043D0009DED1A0B53EC102B9DED180B51EC100BAF
:1043E00004F086FBCDE91E010DF5806090ED960B83
:1043F00002F096F88DED1A0B0DF5006090ED040BB0
:1044000053EC102B9DED1A0B51EC100B04F064F9DA
:10441000CDE91C019DED1E0B53EC102B9DED1C0BEB
:1044200051EC100B03F000FF0DF5D36203C20DF544
:10443000006090ED040B53EC102B90ED100B51EC41
:10444000100B04F049F9CDE91A010DF5006090ED6B
:10445000040B53EC102B90ED120B51EC100B04F0ED
:104460003BF9CDE918019DED1A0B53EC102B9DED96
:10447000180B51EC100B04F03BFBCDE91E010DF5C0
:10448000006090ED080B53EC102B90ED100B51ECED
:10449000100B04F021F9CDE91A010DF5006090ED43
:1044A000040B53EC102B90ED140B51EC100B04F09B
:1044B00013F9CDE918019DED1A0B53EC102B9DED6E
:1044C000180B51EC100B04F013FBCDE91C019DED12
:1044D0001E0B53EC102B9DED1C0B51EC100B03F03D
:1044E000A3FE0DF5D26203C29FEDFE1B0DF58062A7
:1044F00092EDA00B02F084F88DED1E0B9FEDF91BE1
:104500000DF5806292EDA40B02F07AF88DED1A0B96
:104510009FEDF60B53EC102B9DED1A0B51EC100B8D
:1045200003F0C6FDCDE91C019DED1E0B53EC102BD5
:104530009DED1C0B51EC100B03F0BAFD0DF5CF6295
:1045400003C20DF5806090EDA00B53EC102B90EDA5
:10455000A20B51EC100B04F0BFF8CDE91C010DF5D6
:10456000806090EDA40B53EC102B90EDA60B51EC5A
:10457000100B04F0B1F8CDE91A019DED1C0B53ECC2
:10458000102B9DED1A0B51EC100B03F091FD9FEDDC
:10459000D90B53EC102BCDE91E019DED1E0B51ECF8
:1045A000100B04F099F80DF5CE6203C29FEDCD1B00
:1045B0000DF5806292EDA20B02F022F88DED1E0B3C
:1045C0009FEDC81B0DF5806292EDA60B02F018F866
:1045D0008DED1C0B9DED1E0B53EC102B9DED1C0B5C
:1045E00051EC100B03F064FD0DF5CD6203C20DF527
:1045F000806090ED9E0B53EC102B9FEDC00B51ECA7
:10460000100B04F069F8CDE91A010DF5806090ED0A
:104610009A0B53EC102B9DED1A0B51EC100B04F080
:104620005BF89FEDB01BCDE91E010DF5806090EDAC
:104630009C0B01F0E5FF8DED1C0B9DED1E0B53EC6B
:10464000102B9DED1C0B51EC100B04F051FA0DF5E5
:10465000CC6203C20DF5806090ED9E0B53EC102BE5
:104660009FEDA00B51EC100B04F036F8CDE91E01C4
:104670000DF5806090ED980B02F042FE8DED1A0B67
:104680000DF5806090ED9C0B51EC100B03F004FDD8
:10469000CDE918019DED1A0B53EC102B9DED180B75
:1046A00051EC100B03F004FDCDE91C019DED1E0B38
:1046B00053EC102B9DED1C0B51EC100B03F0B4FDD3
:1046C0000DF6080203C20DF5006090ED020B53ECED
:1046D000102B0DF5806090EDA40B51EC100B03F046
:1046E000FBFFCDE91E010DF5806090EDA60B53ECAC
:1046F000102B9DED1E0B51EC100B04F021F90DF564
:10470000006203C20DF5006090ED020B53EC102B1C
:104710000DF5806090EDA00B51EC100B03F0DCFF69
:10472000CDE91E010DF5806090EDA20B53EC102B2E
:104730009DED1E0B51EC100B04F002F90DF5FF621C
:1047400003C2104690ED040B53EC102B90ED000BC0
:1047500051EC100B03F0C0FFCDE91E010DF5806098
:1047600090EDFE0B53EC102B0DF5006090ED060B59
:1047700051EC100B03F0B0FFCDE91C019DED1E0BB9
:1047800053EC102B9DED1C0B51EC100B04F0B0F909
:104790000DF6380203C20DF5806090EDFE0B53EC70
:1047A000102B0DF5006090ED080B51EC100B03F091
:1047B00093FFCDE91E010DF5006090ED040B53EC65
:1047C000102B90ED020B51EC100B03F085FFCDE99F
:1047D0001C019DED1E0B53EC102B9DED1C0B51ECA1
:1047E000100B04F085F90DF5036203C20DF50060AE
:1047F00090ED060B53EC102B90ED020B51EC100BCF
:1048000003F06AFFCDE91E010DF5006090ED000B8D
:1048100053EC102B90ED080B51EC100B03F05CFFE8
:10482000CDE91C019DED1E0B53EC102B9DED1C0BD7
:1048300051EC100B04F05CF90DF6280203C20220C3
:10484000CDF8040609E10DF5806090ED9E0B53EC68
:10485000102B9FED240B51EC100B03F03DFFCDE925
:104860001E010DF5806090ED980B02F049FD8DED75
:104870001A0B0DF5806090ED9C0B51EC100B03F0C2
:104880000BFCCDE918019DED1A0B53EC102B9DED9F
:10489000180B51EC100B04F02BF9CDE91C019DED28
:1048A0001E0B53EC102B9DED1C0B51EC100B03F069
:1048B000BBFC0DF6080203C20DF5006090ED020B83
:1048C00053EC102B0DF5806090EDA40B51EC100B08
:1048D00003F002FFCDE91E010DF5806090EDA60BFF
:1048E00010E0000000000000000000400000000098
:1048F0000000F03F00000000000000C000000000C9
:104900000000104053EC102B9DED1E0B51EC100BD2
:1049100004F016F80DF5006203C20DF5006090ED8D
:10492000020B53EC102B0DF5806090EDA00B51ECB9
:10493000100B03F0D1FECDE91E010DF5806090ED66
:10494000A20B53EC102B9DED1E0B51EC100B03F042
:10495000F7FF0DF5FF6203C2104690ED040B53EC18
:10496000102B90ED000B51EC100B03F0B5FECDE9D0
:104970001E010DF5806090EDFE0B53EC102B0DF534
:10498000006090ED060B51EC100B03F0A5FECDE995
:104990001C019DED1E0B53EC102B9DED1C0B51ECDF
:1049A000100B04F0A5F80DF6380203C20DF5806077
:1049B00090EDFE0B53EC102B0DF5006090ED080B05
:1049C00051EC100B03F088FECDE91E010DF50060DF
:1049D00090ED040B53EC102B90ED020B51EC100BEF
:1049E00003F07AFECDE91C019DED1E0B53EC102B5C
:1049F0009DED1C0B51EC100B04F07AF80DF50362E1
:104A000003C20DF5006090ED060B53EC102B90EDFA
:104A1000020B51EC100B03F05FFECDE91E010DF50A
:104A2000006090ED000B53EC102B90ED080B51EC57
:104A3000100B03F051FECDE91C019DED1E0B53EC54
:104A4000102B9DED1C0B51EC100B04F051F80DF6E2
:104A5000280203C20320CDF80406DDF8740840BB29
:104A60000DF5006090ED080B53EC102B9FED2D0B16
:104A700051EC100B03F030FECDE91C010DF5806008
:104A800090EDF80B53EC102B9DED1C0B51EC100B23
:104A900003F00EFBCDE91E010DF5806090EDF20BE9
:104AA00053EC102B9DED1E0B51EC100B03F0D8FDB9
:104AB0002CD9DDF8740801282BD10DF5006090ED9C
:104AC000080B53EC102B9FED170B51EC100B03F060
:104AD00003FECDE91C010DF5806090EDF80B53EC61
:104AE000102B9DED1C0B51EC100B03F029FFCDE9B1
:104AF0001E010DF5806090EDF20B53EC102B9DED37
:104B00001E0B51EC100B03F0E5FE02D80220CDF88D
:104B10007408DDF8740802287DF46FAC0DF6840D7E
:104B200000BD0000000000000000244070470000AD
:104B300010B504462146054801F06DFA00BF40213A
:104B4000024801F09DF90128F9D110BD004800404C
:104B50002DE9FF5F06460C4615460027002003900E
:104B60008046814682468346029001211020FBF751
:104B700021FD6020009001208DF8040000208DF8B8
:104B8000060002208DF8070003208DF80500694615
:104B90003048FBF7E1FB40212E48FBF74AFC20217F
:104BA0002C48FBF744FCB5F5806F02DB40F2FF3781
:104BB00000E02F46B4F5806F03DB40F2FF30039036
:104BC00000E003944FEA272807F0FF09039800F05C
:104BD000FF0B00202049086001202049C1F89802FD
:104BE000FF20FFF7A5FFFF20FFF7A2FF3046FFF7EA
:104BF0009FFF0720FFF79CFF0320FFF799FF062088
:104C0000FFF796FF5846FFF793FF5046FFF790FFD8
:104C10004846FFF78DFF4046FFF78AFF06F1100078
:104C20005844504448444044C0B202900298C043A3
:104C3000C0B202900298FFF77BFF0120064908608E
:104C400000200649C1F89802022003F007F8BDE8E9
:104C5000FF9F0000001002409402424200004242C6
:104C600010B504488078A0F13004E0B200F0ACF850
:104C700010BD00006A02002070B54C48007A303840
:104C80004A49C979303901EB810100EB4100C0EBA1
:104C900080203E2190FBF1F085B24548006807284E
:104CA00026DA424800793038642110FB01F13F4890
:104CB0004079303800EB800001EB40013B488079BF
:104CC00030380844C0EB80204FF4967190FBF1F02F
:104CD00084B2374908782A46214600F0ABF83548B7
:104CE000006808B9012000E00020324908605CE05B
:104CF0002E4800793038642110FB01F12B484079AF
:104D0000303800EB800001EB4001284880793038D2
:104D1000084440F6C4114843B42190FBF1F084B23A
:104D20002548006868B940F2E241244800F075FC6B
:104D300021480068401C2049086040F2E2402049B8
:104D40000860C5EB051080001E4991FBF0F61C4879
:104D50000068844212DD0CE019480068C01C184944
:104D6000086008460168154800F057FC304602F01C
:104D700091FF13480068A042EEDB15E01048006880
:104D8000844211DA0CE00E480068C01E0C4908602D
:104D900008460168094800F040FC304602F07AFFFE
:104DA00007480068A042EEDC00BF70BD6A02002028
:104DB00008000020A88242420400002000040040B5
:104DC00000000020C07A100070B5054600240020C5
:104DD0001649086001201649C1F89802FF20FFF724
:104DE000A7FEFF20FFF7A4FEFE20FFF7A1FE042090
:104DF000FFF79EFE0320FFF79BFE0320FFF798FEC0
:104E00002846FFF795FE05F58470C4B2E043C4B2AE
:104E10002046FFF78DFE0120044908600020044968
:104E2000C1F89802022002F019FF70BD94024242BC
:104E3000000042422DE9FC5F06460C46154600275D
:104E4000B846B946BA46BB46002001900090B5F579
:104E5000806F02DB40F2FF3700E02F46B4F5806F31
:104E600002DB40F2FF3800E0A0464FEA272907F0B6
:104E7000FF0A4FEA282B08F0FF000190002020498C
:104E8000086001201F49C1F89802FF20FFF750FE7B
:104E9000FF20FFF74DFE3046FFF74AFE0720FFF7E1
:104EA00047FE0320FFF744FE1E20FFF741FE019856
:104EB000FFF73EFE5846FFF73BFE5046FFF738FE31
:104EC0004846FFF735FE06F128000199084458448A
:104ED00050444844C0B200900098C043C0B2009013
:104EE0000098FFF725FE01200549086000200549CC
:104EF000C1F89802022002F0B1FEBDE8FC9F00005C
:104F000094024242000042422DE9F04706460C4618
:104F10004FF0000A00250027A846A946002C04DA15
:104F2000604285B24FF0010A02E0A5B24FF0000ADC
:104F3000B5F5806F01DB40F2FF3545EA8A2085B286
:104F40002F1205F0FF0800201B49086001201B49B3
:104F5000C1F89802FF20FFF7EBFDFF20FFF7E8FD07
:104F60003046FFF7E5FD0520FFF7E2FD0320FFF7E0
:104F7000DFFD2020FFF7DCFD4046FFF7D9FD384676
:104F8000FFF7D6FD06F128004044384400F0FF0941
:104F90006FEA090000F0FF094846FFF7C9FD01204C
:104FA0000549086000200549C1F89802022002F076
:104FB00055FEBDE8F08700009402424200004242E4
:104FC0000CB50020019000903448006840F4803017
:104FD0003249086000BF3148006800F4003000909A
:104FE0000198401C0190009818B90198B0F5A04FA5
:104FF000F1D12A48006800F4003010B1012000907F
:1050000001E0002000900098012846D1234840305C
:10501000006840F080502149403108602048006815
:1050200040F440401E4908601C48083000681B4995
:10503000083108600846006840F4004008600846EF
:10504000006840F4A05008601648091F0860081F57
:10505000006840F08070091F086000BF0F480068BA
:1050600000F000700028F9D040F205700E49086089
:105070000A480830006820F0030008490831086039
:105080000846006840F00200086000BF034808308E
:10509000006800F00C000828F8D10CBD0038024070
:1050A0000070004008544007003C024010B50E4814
:1050B000C07830380C498978303901EB810100EB38
:1050C0004100C0EB80203E2190FBF1F407480068CE
:1050D000002803DC05480068072804DA034908783B
:1050E00021B2FFF711FF10BD6A0200200800002066
:1050F0002DE9F04F8FB006460F4615469846DDF86D
:1051000070A0DDF860904FF0000BB7F5806F04DB06
:1051100040F2FF30ADF8300001E0ADF83070B6F588
:10512000806F04DB40F2FF30ADF8240001E0ADF801
:105130002460BDF8300000128DF81C00BDF830006E
:10514000C0B28DF81400BDF8240000128DF80C00D8
:10515000BDF82400C0B28DF80400B8F5806F04DB00
:1051600040F2FF30ADF8320001E0ADF83280B5F525
:10517000237F04DB40F28B20ADF8260009E0B5F573
:10518000B97F04DC40F27310ADF8260001E0ADF801
:105190002650BDF8320000128DF81D00BDF8320017
:1051A000C0B28DF81500BDF8260000128DF80D0074
:1051B000BDF82600C0B28DF805001998B0F5806FD3
:1051C00004DB40F2FF30ADF8340002E01998ADF88E
:1051D000340040F2AD20814502DDADF8280008E042
:1051E000B9F1620F03DA6220ADF8280001E0ADF8F2
:1051F0002890BDF8340000128DF81E00BDF8340070
:10520000C0B28DF81600BDF8280000128DF80E000F
:10521000BDF82800C0B28DF806001B98B0F5806F6D
:1052200004DB40F2FF30ADF8360002E01B98ADF829
:1052300036001A98B0F5806F04DB40F2FF30ADF80D
:105240002A0002E01A98ADF82A00BDF836000012D4
:105250008DF81F00BDF83600C0B28DF81700BDF8FC
:105260002A0000128DF80F00BDF82A00C0B28DF898
:1052700007001D98B0F5806F04DB40F2FF30ADF8F9
:10528000380002E01D98ADF83800BAF5127F04DB53
:1052900040F24720ADF82C0008E0BAF11E0F03DA07
:1052A0001E20ADF82C0001E0ADF82CA0BDF83800B0
:1052B00000128DF82000BDF83800C0B28DF818003B
:1052C000BDF82C0000128DF81000BDF82C00C0B203
:1052D0008DF808001F98B0F5806F04DB40F2FF30B6
:1052E000ADF83A0002E01F98ADF83A001E98B0F50C
:1052F000806F04DB40F2FF30ADF82E0002E01E9814
:10530000ADF82E00BDF83A0000128DF82100BDF86E
:105310003A00C0B28DF81900BDF82E0000128DF8C9
:105320001100BDF82E00C0B28DF8090000205B49C5
:10533000086001205A49C1F89802FF20FFF7F8FBE6
:10534000FF20FFF7F5FBFE20FFF7F2FB2220FFF71F
:10535000EFFB8320FFF7ECFB1E20FFF7E9FB0420A7
:10536000FFF7E6FB0120FFF7E3FB9DF80400FFF7E2
:10537000DFFB9DF80C00FFF7DBFB9DF81400FFF747
:10538000D7FB9DF81C00FFF7D3FB0220FFF7D0FBF3
:105390009DF80500FFF7CCFB9DF80D00FFF7C8FB5B
:1053A0009DF81500FFF7C4FB9DF81D00FFF7C0FB3B
:1053B0000320FFF7BDFB9DF80600FFF7B9FB9DF842
:1053C0000E00FFF7B5FB9DF81600FFF7B1FB9DF847
:1053D0001E00FFF7ADFB0420FFF7AAFB9DF80700B6
:1053E000FFF7A6FB9DF80F00FFF7A2FB9DF8170043
:1053F000FFF79EFB9DF81F00FFF79AFB0520FFF7C4
:1054000097FB9DF80800FFF793FB9DF81000FFF74E
:105410008FFB9DF81800FFF78BFB9DF82000FFF72E
:1054200087FB0620FFF784FB9DF80900FFF780FB50
:105430009DF81100FFF77CFB9DF81900FFF778FB42
:105440009DF82100FFF774FB4FF0DA0B00240FE00A
:1054500001A8005D03A9095D084405A9095D084488
:1054600007A9095D0844584400F0FF0B601C84B292
:10547000062CEDDB6FEA0B0000F0FF0B5846FFF740
:1054800057FB01200549086000200549C1F8980232
:10549000022002F0E3FB0FB0BDE8F08F940242421D
:1054A00000004242042808D14FF0E021096941F090
:1054B00004014FF0E022116107E04FF0E02109699B
:1054C00021F004014FF0E0221161704770470000A5
:1054D00010B51548006840F470001349086013487F
:1054E000006840F001001149086000200F490831B0
:1054F00008600E4800680E4908400C4908600D48D5
:10550000091D0860081F006820F48020091F08603A
:10551000002006490C310860FFF752FD4FF0006093
:1055200001498039086010BD88ED00E00038024074
:10553000FFFFF6FE1030002421B1028842F0800205
:10554000028004E002884FF67F731A4002807047A1
:1055500021B1028842F00102028004E002884FF685
:10556000FE731A400280704770B5002400220023A9
:10557000058C4FF6FF6635400584028C8388848B4A
:105580004FF68F752C404FF6FC752C400D882C4340
:105590004FF6FF552A408D894FF6FF7606EA05251E
:1055A0002A434D8806EA05252A43154DA84202D014
:1055B000144DA8421DD14FF2FF752A40CD894FF6F8
:1055C000FF7606EA05252A434FF6FF352A408D88E7
:1055D00006EA05252A434EF6FF752B404DF6FF756A
:1055E0002B400D8A06EA05152B434D8A06EA051560
:1055F0002B43838084838D68C563028470BD000063
:1056000000000140000401400A460021818B4FF652
:10561000F7731940114381837047C16370470000DD
:1056200000220288184B98420ED0184B98420BD09B
:10563000B0F1804F08D0164B984205D0154B9842D8
:1056400002D0154B984204D14FF68F731A404B8805
:105650001A43124B984207D0114B984204D04FF690
:10566000FF431A400B891A4302804B68C3620B88C0
:105670000385054B984202D0044B984201D18B7AA6
:10568000038601238382704700000140000401402B
:105690000004004000080040000C004000100040E2
:1056A000001400402DE9F047002501265CE3F7488F
:1056B000008800F400400028F8D00020F34908805A
:1056C000F348C0783038F2498978303901EB8101EC
:1056D00000EB4100EF490860ED4800784128E5D132
:1056E000EB484078482800D10026E9484078422815
:1056F00001D1FFF7C1FAE648407845287ED1002461
:1057000053E00020E44908800120FAF7F7FFE2485F
:10571000008800F40040002847D0E0480078FF28C7
:1057200043D1DE484078FF283FD1DC48807801280B
:105730003BD1DA48C078062837D1D8480079A0BBD9
:105740000020D6498978D54AD2781144D34A1279B3
:105750001144D24A52791144D04A92791144CF4A25
:10576000D2791144CD4A127A1144C8B2C143C8B2A9
:10577000CA49497A814217D1C8494A79897902EBE5
:105780000121C5EBC502C64B23F81210C349CA79E3
:10579000097A02EB0121C5EBC502C24B23F81210B6
:1057A00001240021BC4A118000BF012CA9D1002492
:1057B00057E00020B84908800220FAF79FFFB6485A
:1057C000008800F4004000284BD0B4480078FF283F
:1057D00047D1B2484078FF2843D1B04880780228AA
:1057E0003FD1AE48C07806283BD1AC480079C0BB59
:1057F0000020AA498978A94AD27800E0C1E1114481
:10580000A64A12791144A54A52791144A34A9279C1
:105810001144A24AD2791144A04A127A1144C8B262
:10582000C143C8B29D49497A814219D19B494A79FD
:10583000897902EB0121C5EBC502994B03EB4202CA
:1058400051809649CA79097A02EB0121C5EBC5025C
:10585000944B03EB42025180012400218E4A1180B7
:1058600000BF012CA5D1002456E000208A49088001
:105870000320FAF743FF8848008800F40040E8B3AB
:1058800086480078FF2847D184484078FF2843D1D4
:105890008248807803283FD18048C07806283BD1D1
:1058A0007E48007950BB00207C4989787B4AD278B9
:1058B00011447A4A12791144784A52791144774A4C
:1058C00092791144754AD2791144744A127A11447A
:1058D000C8B2C143C8B27149497A81421BD16F49EC
:1058E0004A79897902EB0121C5EBC5026C4B03EBC8
:1058F000420291806949CA79097A00E00CE002EB22
:105900000121C5EBC502674B03EB420291800124E4
:105910000021614A118000BF012CA6D1002456E06D
:1059200000205D4908800420FAF7E8FE5A48008804
:1059300000F40040E8B359480078FF2847D15748A1
:105940004078FF2843D15548807804283FD15348F8
:10595000C07806283BD15148007950BB00204F4900
:1059600089784E4AD27811444C4A127911444B4AF4
:1059700052791144494A92791144484AD2791144E2
:10598000464A127A1144C8B2C143C8B24349497A5F
:1059900081421BD141494A79897902EB0121C5EB4A
:1059A000C5023F4B03EB4202D1803C49CA79097AD8
:1059B00000E00CE002EB0121C5EBC502394B03EB23
:1059C0004202D18001240021334A118000BF012C02
:1059D000A6D1002456E000202F4908800520FAF7C0
:1059E0008DFE2D48008800F40040E8B32B48007875
:1059F000FF2847D129484078FF2843D1274880789D
:105A000005283FD12548C07806283BD12348007996
:105A100050BB002021498978204AD27811441F4A7E
:105A2000127911441D4A527911441C4A9279114449
:105A30001A4AD2791144194A127A1144C8B2C143A0
:105A4000C8B21649497A81421BD114494A798979E9
:105A500002EB0121C5EBC502114B03EB42021181A0
:105A60000E49CA79097A00E00CE002EB0121C5EB8E
:105A7000C5020C4B03EB4202118101240021064AAE
:105A8000118000BF012CA6D1002474E02C0000205E
:105A90006A0200200800002024000020600200208C
:105AA00030000020480100200020B2490880062074
:105AB000FAF724FEAF48008800F40040E8B3AE488F
:105AC0000078FF2857D1AC484078FF2853D1AA4826
:105AD000807806284FD1A848C07806284BD1A64820
